:020000040800F2
:1000000000000320BD0E000801320008093200087C
:1000100011320008193200082132000800000000E7
:10002000000000000000000000000000293200086D
:100030003732000800000000453200085332000843
:10004000110F0008110F0008110F0008C532000839
:10005000110F0008110F0008110F0008110F000800
:10006000110F0008110F0008110F0008110F0008F0
:10007000110F0008110F0008110F0008110F0008E0
:10008000110F0008110F0008110F0008110F0008D0
:10009000110F0008110F0008110F0008110F0008C0
:1000A000110F0008110F0008D1320008110F0008CD
:1000B000110F0008110F0008110F0008110F0008A0
:1000C000110F0008110F0008110F0008110F000890
:1000D00061320008110F0008110F0008110F00080D
:1000E000AD320008110F0008110F0008110F0008B1
:1000F00095320008A132000875320008110F00087F
:10010000110F0008110F0008110F0008110F00084F
:10011000110F0008110F0008110F0008110F00083F
:10012000110F0008110F000881320008110F00089C
:0C013000110F0008110F0008110F00084B
:1001400010B5054C237833B9044B13B10448AFF311
:1001500000800123237010BDC002002000000000B9
:10016000883B010808B5034B1BB103490348AFF3B3
:10017000008008BD00000000C4020020883B010888
:1001800010F8012B11F8013B012A28BF9A42F7D041
:10019000D01A7047000000000000000000000000BE
:1001A00001F0FF01102A2BDB10F0070F08D010F828
:1001B000013B013A8B422DD010F0070F42B3F6D12C
:1001C000F0B441EA012141EA014122F007047FF045
:1001D00000070023F0E80256083C85EA010586EA9C
:1001E000010685FA47F5A3FA87F586FA47F6A5FAD8
:1001F00087F68EB9EED1F0BC01F0FF0102F00702E4
:1002000032B110F8013B013A83EA010313B1F8D18E
:100210000020704701387047002D06BF354603386F
:10022000073815F0010F07D1013015F4807F02BFA8
:10023000013015F4C03F0130F0BC0138704700BFF9
:10024000034613F8012B002AFBD1181A0138704716
:1002500081F0004102E000BF83F0004330B54FEA77
:1002600041044FEA430594EA050F08BF90EA020FE4
:100270001FBF54EA000C55EA020C7FEA645C7FEA77
:10028000655C00F0E2804FEA5454D4EB5555B8BF9A
:100290006D420CDD2C4480EA020281EA030382EA0B
:1002A000000083EA010180EA020281EA0303362D9D
:1002B00088BF30BD11F0004F4FEA01314FF4801C70
:1002C0004CEA113102D0404261EB410113F0004F82
:1002D0004FEA03334CEA133302D0524263EB430339
:1002E00094EA050F00F0A780A4F10104D5F1200ED7
:1002F0000DDB02FA0EFC22FA05F2801841F1000132
:1003000003FA0EF2801843FA05F359410EE0A5F105
:1003100020050EF1200E012A03FA0EFC28BF4CF036
:10032000020C43FA05F3C01851EBE37101F00045EC
:1003300007D54FF0000EDCF1000C7EEB00006EEBF9
:100340000101B1F5801F1BD3B1F5001F0CD3490883
:100350005FEA30004FEA3C0C04F101044FEA4452DA
:1003600012F5800F80F09A80BCF1004F08BF5FEA61
:10037000500C50F1000041EB045141EA050130BD41
:100380005FEA4C0C404141EB0101013C28BFB1F553
:10039000801FE9D291F0000F04BF01460020B1FA9E
:1003A00081F308BF2033A3F10B03B3F120020CDA71
:1003B0000C3208DD02F1140CC2F10C0201FA0CF04F
:1003C00021FA02F10CE002F11402D8BFC2F1200CB4
:1003D00001FA02F120FA0CFCDCBF41EA0C0190406A
:1003E000E41AA2BF01EB0451294330BD6FEA0404B3
:1003F0001F3C1CDA0C340EDC04F11404C4F120029E
:1004000020FA04F001FA02F340EA030021FA04F3AF
:1004100045EA030130BDC4F10C04C4F1200220FA06
:1004200002F001FA04F340EA0300294630BD21FA44
:1004300004F0294630BD94F0000F83F4801306BF0A
:1004400081F480110134013D4EE77FEA645C18BFFE
:100450007FEA655C29D094EA050F08BF90EA020F95
:1004600005D054EA000C04BF1946104630BD91EA8D
:10047000030F1EBF0021002030BD5FEA545C05D190
:100480004000494128BF41F0004130BD14F58004CF
:100490003CBF01F5801130BD01F0004545F0FE4143
:1004A00041F470014FF0000030BD7FEA645C1ABF78
:1004B000194610467FEA655C1CBF0B46024650EAAF
:1004C000013406BF52EA033591EA030F41F40021DB
:1004D00030BD00BF90F0000F04BF0021704730B561
:1004E0004FF4806404F132044FF000054FF0000136
:1004F00050E700BF90F0000F04BF0021704730B5F7
:100500004FF4806404F1320410F0004548BF4042CB
:100510004FF000013EE700BF42004FEAE2014FEA20
:1005200031014FEA02701FBF12F07F4393F07F4FFB
:1005300081F06051704732F07F4208BF704793F0FE
:100540007F4F04BF41F40021704730B54FF4607411
:1005500001F0004521F000411CE700BF50EA010214
:1005600008BF704730B54FF000050AE050EA0102BD
:1005700008BF704730B511F0004502D5404261EB2D
:1005800041014FF4806404F132045FEA915C3FF46E
:10059000D8AE4FF003025FEADC0C18BF03325FEA0B
:1005A000DC0C18BF033202EBDC02C2F1200300FABC
:1005B00003FC20FA02F001FA03FE40EA0E0021FAE1
:1005C00002F11444BDE600BF70B54FF0FF0C4CF4CF
:1005D000E06C1CEA11541DBF1CEA135594EA0C0F81
:1005E00095EA0C0F00F0DEF82C4481EA030621EABC
:1005F0004C5123EA4C5350EA013518BF52EA0335F7
:1006000041F4801143F4801338D0A0FB02CE4FF0A8
:100610000005E1FB02E506F00042E0FB03E54FF0D8
:100620000006E1FB03569CF0000F18BF4EF0010ED0
:10063000A4F1FF04B6F5007F64F5407404D25FEACC
:100640004E0E6D4146EB060642EAC62141EA55517F
:100650004FEAC52040EA5E504FEACE2EB4F1FD0CC1
:1006600088BFBCF5E06F1ED8BEF1004F08BF5FEA3F
:10067000500E50F1000041EB045170BD06F00046F1
:1006800046EA010140EA020081EA0301B4EB5C049E
:10069000C2BFD4EB0C0541EA045170BD41F4801196
:1006A0004FF0000E013C00F3AB8014F1360FDEBFBB
:1006B000002001F0004170BDC4F10004203C35DA97
:1006C0000C341BDC04F11404C4F1200500FA05F31A
:1006D00020FA04F001FA05F240EA020001F00042BB
:1006E00021F0004110EBD37021FA04F642EB060131
:1006F0005EEA430E08BF20EAD37070BDC4F10C045B
:10070000C4F1200500FA04F320FA05F001FA04F21E
:1007100040EA020001F0004110EBD37041F100010A
:100720005EEA430E08BF20EAD37070BDC4F1200515
:1007300000FA05F24EEA020E20FA04F301FA05F27D
:1007400043EA020321FA04F001F0004121FA04F225
:1007500020EA020000EBD3705EEA430E08BF20EAF5
:10076000D37070BD94F0000F0FD101F0004640002F
:1007700041EB010111F4801F08BF013CF7D041EAB1
:10078000060195F0000F18BF704703F000465200B5
:1007900043EB030313F4801F08BF013DF7D043EA86
:1007A0000603704794EA0C0F0CEA135518BF95EA3C
:1007B0000C0F0CD050EA410618BF52EA4306D1D1C3
:1007C00081EA030101F000414FF0000070BD50EAE2
:1007D000410606BF1046194652EA430619D094EA6C
:1007E0000C0F02D150EA013613D195EA0C0F05D156
:1007F00052EA03361CBF104619460AD181EA0301AA
:1008000001F0004141F0FE4141F470014FF0000061
:1008100070BD41F0FE4141F4780170BD70B54FF0FC
:10082000FF0C4CF4E06C1CEA11541DBF1CEA13557C
:1008300094EA0C0F95EA0C0F00F0A7F8A4EB05045E
:1008400081EA030E52EA03354FEA013100F0888055
:100850004FEA03334FF0805545EA131343EA12631E
:100860004FEA022245EA111545EA10654FEA0026D3
:100870000EF000419D4208BF964244F1FD0404F58C
:10088000407402D25B084FEA3202B61A65EB0305E8
:100890005B084FEA32024FF480104FF4002CB6EBA5
:1008A000020E75EB030E22BFB61A754640EA0C0025
:1008B0005B084FEA3202B6EB020E75EB030E22BF65
:1008C000B61A754640EA5C005B084FEA3202B6EBA6
:1008D000020E75EB030E22BFB61A754640EA9C0065
:1008E0005B084FEA3202B6EB020E75EB030E22BF35
:1008F000B61A754640EADC0055EA060E18D04FEAF3
:10090000051545EA16754FEA06164FEAC30343EA92
:1009100052734FEAC2025FEA1C1CC0D111F4801F5F
:100920000BD141EA00014FF000004FF0004CB6E758
:1009300011F4801F04BF01430020B4F1FD0C88BFF7
:10094000BCF5E06F3FF6AFAEB5EB030C04BFB6EB02
:10095000020C5FEA500C50F1000041EB045170BDF5
:100960000EF0004E4EEA113114EB5C04C2BFD4EB22
:100970000C0541EA045170BD41F480114FF0000EA6
:10098000013C90E645EA060E8DE60CEA135594EA22
:100990000C0F08BF95EA0C0F3FF43BAF94EA0C0F25
:1009A0000AD150EA01347FF434AF95EA0C0F7FF49A
:1009B00025AF104619462CE795EA0C0F06D152EAEE
:1009C00003353FF4FDAE1046194622E750EA4106D2
:1009D00018BF52EA43067FF4C5AE50EA41047FF4E3
:1009E0000DAF52EA43057FF4EBAE12E74FF0FF3C48
:1009F00006E000BF4FF0010C02E000BF4FF0010C19
:100A00004DF804CD4FEA410C7FEA6C5C4FEA430C91
:100A100018BF7FEA6C5C1BD001B050EA410C0CBFE0
:100A200052EA430C91EA030F02BF90EA020F002042
:100A3000704710F1000F91EA030F58BF994208BFA9
:100A400090422CBFD8176FEAE37040F00100704766
:100A50004FEA410C7FEA6C5C02D150EA013C07D1BD
:100A60004FEA430C7FEA6C5CD6D152EA033CD3D008
:100A70005DF8040B704700BF8446104662468C4602
:100A80001946634600E000BF01B5FFF7B7FF002835
:100A900048BF10F1000F01BD4DF808EDFFF7F4FF5E
:100AA0000CBF012000205DF808FB00BF4DF808EDE9
:100AB000FFF7EAFF34BF012000205DF808FB00BF0C
:100AC0004DF808EDFFF7E0FF94BF012000205DF82E
:100AD00008FB00BF4DF808EDFFF7CEFF94BF0120E3
:100AE00000205DF808FB00BF4DF808EDFFF7C4FFDC
:100AF00034BF012000205DF808FB00BF4FEA410C25
:100B00007FEA6C5C02D150EA013C0AD14FEA430C07
:100B10007FEA6C5C02D152EA033C02D14FF0000044
:100B200070474FF0010070474FEA410212F5001282
:100B300015D211D56FF47873B3EB625212D94FEA24
:100B4000C12343F0004343EA505311F0004F23FA0E
:100B500002F018BF404270474FF00000704750EA63
:100B6000013005D111F0004008BF6FF00040704720
:100B70004FF00000704700BF53B94AB9002908BFC1
:100B800000281CBF4FF0FF314FF0FF3000F088B954
:100B9000ADF1080C6DE904CE00F006F8DDF804E0D4
:100BA000DDE9022304B070472DE9F047089D8E4629
:100BB00004468846002B4AD18A42174662D9B2FAC7
:100BC00082F64EB1C6F1200301FA06F820FA03F3CB
:100BD000B74043EA0808B4404FEA174E1FFA87FCB3
:100BE000B8FBFEF1230C0EFB118843EA084301FB1E
:100BF0000CF29A4209D9FB1801F1FF3080F0EA802B
:100C00009A4240F2E78002393B449A1AA3B2B2FBFF
:100C1000FEF00EFB102243EA024300FB0CFC9C4555
:100C200009D9FB1800F1FF3280F0D6809C4540F2D4
:100C3000D3803B44023840EA0140A3EB0C0300217F
:100C40001DB1F3400022C5E90032BDE8F0878B42B8
:100C500005D90DB1C5E9000100210846F5E7B3FA51
:100C600083F1002946D1734502D3824200F2058107
:100C7000841A6EEB030201209046002DE5D0C5E9F1
:100C80000048E2E7002A00F09080B2FA82F6002ED7
:100C900040F0A4808A1A030C4FEA174E80B2BCB20F
:100CA0000121B2FBFEFC0EFB1C2243EA024304FBC3
:100CB0000CF29A4207D9FB180CF1FF3802D29A4283
:100CC00000F2E080C4469B1AB3FBFEF20EFB123327
:100CD00040EA034302FB04F49C4207D9FB1802F1EB
:100CE000FF3002D29C4200F2CA8002461B1B42EA3D
:100CF0000C40A5E7C1F120068B4022FA06F71F43FE
:100D00000EFA01F420FA06F32EFA06FE4FEA17490E
:100D1000234300FA01F81FFA87FCBEFBF9F01C0C14
:100D200009FB10EE44EA0E4400FB0CFEA64502FA55
:100D300001F209D93C1900F1FF3A80F09C80A645E8
:100D400040F2998002383C44A4EB0E041FFA83FE63
:100D5000B4FBF9F309FB13444EEA044403FB0CFC17
:100D6000A44508D93C1903F1FF3E80F08280A445D8
:100D70007FD9023B3C4443EA0040A4EB0C04A0FBB7
:100D800002EC64457346E14662D35FD05DB1B8EBD7
:100D9000030264EB090404FA06F622FA01F31E4387
:100DA000CC40C5E9006400214FE7B1FBF2FC010C27
:100DB00041EA0E4180B240EA01423B4638463C4699
:100DC000B846BE462026B1FBF7F1A2EB080241EA85
:100DD0000C4166E7014618E710462CE7C6F12002F1
:100DE0002EFA02F3B740B14020FA02F24FEA174E52
:100DF0000A43B3FBFEF8BCB20EFB1833110C41EAF8
:100E0000034108FB04F9B04089454FEA104380B222
:100E10003ED9791808F1FF3C01D289451FD8A1EBD2
:100E20000901B1FBFEF909FB04F80EFB191192B29E
:100E300042EA0142424529D2BA1809F1FF31C4D22F
:100E40004245C2D2A9F102013A44BEE7F0459DD223
:100E5000BEEB02036CEB070C0138E14696E7A7EB0B
:100E600009094944A8F1020CB1FBFEF909FB04F899
:100E7000DBE773467FE7504666E70846FDE63B44FE
:100E8000023A33E7ACF1020C3B441CE749469CE7CD
:100E9000A1EB0901C446B1FBFEF909FB04F8C4E764
:100EA000704700BFD458C4500433C4188C42F9D3DF
:100EB0007047036004308842FBD370470C48854676
:100EC00005F0BCFF0B480C490C4A0023FFF7EDFF6F
:100ED0000B480C490023FFF7EEFF0B480B4900239A
:100EE000FFF7E9FF10F03AFE01F0DAFCFEE7000040
:100EF000000003200800002084020020845B010819
:100F0000C0020020881E0020E4010320670A03209D
:100F1000FEE7000080B483B000AF7860064BD3F8E2
:100F2000902005497B681343C1F8903000BF0C370F
:100F3000BD465DF8047B70470008005880B485B05A
:100F400000AF78604FF0B043DA6C4FF0B0417B688F
:100F50001343CB644FF0B043DA6C7B681340FB6003
:100F6000FB6800BF1437BD465DF8047B704780B452
:100F700085B000AF78604FF0B043D3F84C214FF00C
:100F8000B0417B681343C1F84C314FF0B043D3F804
:100F90004C217B681340FB60FB6800BF1437BD46E3
:100FA0005DF8047B704780B500AF06F00DF806F0E1
:100FB00011F84FF48030FFF7ADFF0DF0DFFA00F0CD
:100FC00021F800F0C1F800BF80BD0000B0B588B0C6
:100FD00000AF0B4B3C1D1D460FCD0FC495E807001D
:100FE00003C422800234130C23700FF017F83B1D4A
:100FF00018460DF068FE00BF2037BD46B0BD00BFEB
:10100000A03B010880B588B000AF3B1D00221A60EC
:101010005A609A60DA601A610023BB8300237B83E5
:1010200000233B830023FB7736E0FB7F434ADB0052
:1010300013449B79002B2CD0FB7F404A52F833306D
:101040003F4A93421BD03E4A934221D8B3F1904F7E
:1010500003D03C4A934209D01AE0FB7F374ADB00B9
:1010600013449A88BB8B1343BB8312E0FB7F334A44
:10107000DB0013449A887B8B13437B8309E0FB7F5F
:101080002E4ADB0013449A883B8B13433B8300E0DA
:1010900000BFFB7F0133FB77FB7F252BC5D90023E6
:1010A000FB600123BB6003233B61BB8B002B14D08F
:1010B000BB8B7B600120FFF741FF0120FFF757FF4B
:1010C0003B1D19464FF0904006F0A6FCBB8B00225A
:1010D00019464FF0904006F0EDFE7B8B002B12D0AE
:1010E0007B8B7B600220FFF729FF0220FFF73FFF89
:1010F0003B1D1946134806F08FFC7B8B00221946D6
:10110000104806F0D7FE3B8B002B13D03B8B7B6047
:101110000420FFF713FF0420FFF729FF3B1D1946AA
:10112000074806F079FC3B8B00221946044806F07C
:10113000C1FE00BF00BF2037BD4680BD045101087D
:10114000000800480004004880B400AF00BFBD465E
:101150005DF8047B704780B500AF01F08BFC00BFE9
:1011600080BD80B584B000AFF8600B467A607B81AB
:101170007A897B68F968002001F098FA00BF10377F
:10118000BD4680BD80B483B000AF7860074BD3F814
:10119000803023F0070205497B681343C1F8803093
:1011A00000BF0C37BD465DF8047B70470004005853
:1011B00080B483B000AF7860064BD3F89020054927
:1011C0007B681343C1F8903000BF0C37BD465DF813
:1011D000047B70470008005880B483B000AF78608B
:1011E0004FF0B0430A4AC3F89C204FF0B043D3F805
:1011F0009C3023F47C527B681B024FF0B0411343B8
:10120000C1F89C3000BF0C37BD465DF8047B7047C9
:10121000FECAFECA80B483B000AF78604FF0B0431E
:101220009B6823F400424FF0B0417B6813438B600E
:1012300000BF0C37BD465DF8047B704780B400AF3B
:10124000044B1B68C3F30B031846BD465DF8047BD3
:10125000704700BF002004E080B400AF044B1B685F
:101260001B0C9BB21846BD465DF8047B704700BF5F
:10127000002004E080B400AF054B1B69044A23F052
:101280000403136100BFBD465DF8047B704700BFD7
:1012900000ED00E080B483B000AF78607B68FF228F
:1012A0005A6200BF0C37BD465DF8047B704780B4BE
:1012B00083B000AF78607B68CA225A627B68532291
:1012C0005A6200BF0C37BD465DF8047B704780B49E
:1012D00083B000AF786039607B689B6823F00702B9
:1012E0003B681A437B689A6000BF0C37BD465DF8C7
:1012F000047B704780B500AF044B4FF400421A6185
:1013000000F09DF800F0A2F800BF80BD004000583A
:1013100080B500AF00F0AEF800F0C6F8204900201C
:1013200000F034FFFFF73FFE012101200FF038FAF3
:101330000021002005F05CF91A480EF003FF0020A0
:101340000EF056FF0021002005F076FB002005F08E
:101350001FFA002005F048FA13480EF091FFFF2015
:101360000EF066FF00200EF077FF0021002005F050
:1013700063FB002005F038FA01230C4A002100200D
:101380000EF0F4FF002005F02FFA00F04EF800F008
:10139000EDF900F065FA00F095F800BF80BD00BFE0
:1013A000D404002094520108AC000020BC3B01088A
:1013B00080B400AF00BFBD465DF8047B704780B5C8
:1013C00000AF5020FFF7F4FE00BF80BD80B586B0AF
:1013D00000AF3B1D00221A605A609A60DA601A6101
:1013E00004F07CFD80237B600223BB600223FB6052
:1013F00000233B6105237B613B1D19464FF0904064
:1014000006F00AFB00BF1837BD4680BD80B582B02C
:1014100000AF786004F004FD786804F08BFDFFF7FE
:10142000D5FF00BF0837BD4680BD80B500AF04F0D2
:10143000F7FC04F08BFDFFF7C9FF00BF80BD80B44F
:1014400000AF00BFBD465DF8047B704780B582B039
:1014500000AF00200DF0CCFA78607B68002B05D03F
:101460007B689B791846FFF7B7FE00BF00BF0837BF
:10147000BD4680BD80B500AFFFF79AFFFFF79FFF25
:1014800000F002F800BF80BD80B500AF0548FFF74F
:101490000EFF00210348FFF71AFF0248FFF7FAFE8C
:1014A00000BF80BD0028004080B500AF4FF4004071
:1014B000FFF7B0FE0FF062F90420FFF763FE00BFF4
:1014C00080BD000080B588B000AF0EF0EDFB114A82
:1014D000002110200FF016FB0F4B3B600F4B7B6081
:1014E0003B4619460E480DF0C9FC0E4BBB600E4B37
:1014F000FB600E4B3B6140F23C537B6107F10803FC
:1015000018460EF017FD0EF0C9FB00BF2037BD4690
:1015100080BD00BFB5EE0008340703203115000878
:10152000491500084C09032040080320F801032056
:1015300080B483B000AF0346FB7100BF0C37BD46DB
:101540005DF8047B7047000080B588B000AF78601C
:101550007B685B680B33FB61FB691B889BB2A3F55F
:101560001243072B60D801A252F823F08D15000812
:10157000CF150008DD15000829160008F915000828
:1015800009160008111600082116000807F10C03BF
:1015900018460DF0C5FB3B7B19467B7B1A46BB7B8F
:1015A000244810F011F93B7C1946234810F00CF93F
:1015B000BB7D1946FB7D1A463B7E204810F004F99E
:1015C0001F4810F001F9786800F070F82DE01D4810
:1015D00010F0FAF8786800F043F826E01A4810F0A6
:1015E00063F9FB6902331968FB6902335B681A46C9
:1015F000164810F0E9F818E0FB6902331B68194639
:10160000134810F0E1F810E0124810F0DDF80CE09B
:10161000FB6902331B6819460F4810F0D5F804E047
:101620000E4810F0D1F800E000BF00BF2037BD46E3
:1016300080BD00BFD43B0108F83B0108143C010801
:101640002C3C01084C3C0108703C0108C03C0108DE
:10165000E83C0108243D0108483D0108843D01089B
:1016600080B584B000AF78607B685B680B33FB604B
:10167000FB680233BB60BB681B781946084810F052
:10168000A3F8BB681B78002B03D1064810F00CF9B7
:1016900003E0054810F008F900BF1037BD4680BDD3
:1016A000A83D0108D83D0108143E010880B58AB064
:1016B00000AF786007F1080300221A605A609A6050
:1016C000DA6000237B6200233B627B685B680B333C
:1016D000FB61FB690233BB61BB691B78002B28D11E
:1016E0001D4810F0E1F8FFF771FC0F233B727F23D8
:1016F000BB72FFF7B1FD7862796A184810F064F8A0
:101700007B6A9BB2BB82FFF799FD3862396A144845
:1017100010F05AF83B6A9BB2FB8207F108031846A7
:101720000DF0E8FA01F0A8FE002101200FF038F8D2
:101730000EE0BB691B78012B06D10A4810F044F873
:101740007B6800221A7003E0074810F03DF800BFE4
:101750002837BD4680BD00BF4C3E0108683E0108E9
:101760008C3E0108AC3E0108E03E010880B500AFA8
:101770000121002004F012FC0121012004F00EFCE4
:1017800000BF80BD80B584B000AF786005F0F8FB85
:10179000B8607B68FB60FB68B3F1FF3F0AD005F0DF
:1017A00007FC03461A46FB681344FB6002E0FFF7A0
:1017B00061FD30BF05F0E4FB0246BB68D31AFA684E
:1017C0009A42F4D800BF00BF1037BD4680BD80B537
:1017D00000AF4FF0FF300FF013F800BF80BD80B4B2
:1017E00000AF00BFBD465DF8047B704780B582B096
:1017F00000AF7860002110200FF0A6F900BF083775
:10180000BD4680BD80B582B000AF786002200FF089
:1018100007FA00BF0837BD4680BD80B582B000AF73
:10182000786002200FF01CFA00BF0837BD4680BD6B
:1018300080B582B000AF0346FB80FB88B3F5805FC4
:1018400003D0B3F5005F03D005E002F0CDFA02E06B
:1018500002F0D0FA00BF00BF0837BD4680BD0000CF
:1018600080B500AF034B01220349002000F0FAFECF
:1018700000BF80BD7D180008E402002080B500AFE5
:10188000154B1B88FF2B1ED8144B1B780D2B0FD12B
:10189000134914480FF098FF00F028F80E4B00226F
:1018A0001A804FF4807200210D4810F0FFF80AE012
:1018B000094B1B885A1C91B2074A11801A46074BE4
:1018C0001978074B9954084B01220449002000F075
:1018D000C9FE00BF80BD00BFEC030020E402002071
:1018E000EC020020143F01087D18000880B500AF0D
:1018F00013491448FEF744FC0346002B09D1124853
:101900000FF0D2FF114B124A1A60104806F062F82D
:1019100014E010490B48FEF733FC0346002B09D1B5
:101920000D480FF0C1FF094B0C4A1A60074806F03A
:1019300051F803E003490A480FF046FF00BF80BD9D
:10194000243F0108EC020020283F0108DC020020AF
:101950000C000016303F0108343F01080D0000164E
:101960003C3F010880B483B000AF7860064BD3F8E9
:10197000802005497B681343C1F8803000BF0C37D5
:10198000BD465DF8047B70470008005880B483B002
:1019900000AF7860054B1A6804497B6813430B60FD
:1019A00000BF0C37BD465DF8047B70470008005847
:1019B00080B483B000AF0D4B9B6A9BB27B600B4B36
:1019C0009B6A9BB23B6005E03B687B60074B9B6A70
:1019D0009BB23B607A683B689A42F5D13B681846F7
:1019E0000C37BD465DF8047B704700BF00280040FF
:1019F00080B485B000AF03460A46FB711346BB7145
:101A0000BA791D4913465B001344DB000B441533C0
:101A10001B78FB73FB7B062B09D0FA7B1649134618
:101A20005B001344DB000B441433FA791A70FA7923
:101A3000114913465B001344DB000B441533FA7B5A
:101A40001A70FA790C4913465B001344DB000B440F
:101A50001433BA791A70BA79074913465B001344F4
:101A6000DB000B441533FA791A7000BF1437BD46FA
:101A70005DF8047B704700BFF003002080B485B0A0
:101A800000AF03460A46FB711346BB71294B1B7816
:101A9000DBB2BA799A4232D0BA79274913465B0051
:101AA0001344DB000B4414331B78FB73FA7B22498D
:101AB00013465B001344DB000B441533FA791A70AC
:101AC000FA791D4913465B001344DB000B441533C0
:101AD000BA791A70FA79184913465B001344DB008F
:101AE0000B441433FA7B1A70BA79134913465B001E
:101AF0001344DB000B441433FA791A7014E0FA79BA
:101B00000D4913465B001344DB000B441533BA79CF
:101B10001A70BA79084913465B001344DB000B4482
:101B20001433FA791A7000BF1437BD465DF8047B90
:101B3000704700BF80040020F003002080B584B00F
:101B400000AF0346FB714E4B1B78DBB2062B18D15E
:101B50004B4B1B78DAB24B4B1A70494AFB79137026
:101B6000FA79494913465B001344DB000B441533F3
:101B700006221A70454B4FF0FF321A600023FB819A
:101B800078E000F009F90346FB81FA793E491346F3
:101B90005B001344DB000B4408331968FB89FA79B6
:101BA0001944394813465B001344DB0003440833EF
:101BB0001960FA79344913465B001344DB000B4487
:101BC00008331B68BB602E4B1B78DBB219462E4ACC
:101BD0000B465B000B44DB00134408331B68BA68F8
:101BE0009A4237D3264B1B787B737A7B2649134660
:101BF0005B001344DB000B4415331B783B7313E08D
:101C00007A7B214913465B001344DB000B441533F8
:101C10001B787B737A7B1C4913465B001344DB0003
:101C20000B4415331B783B733B7B062B0BD03A7B65
:101C3000154913465B001344DB000B4408331B6853
:101C4000BA689A42DCD27A7BFB7911461846FFF7D4
:101C5000CFFE0FE00A4B1B78DAB2FB79114618462B
:101C6000FFF70CFF064B1B78DAB2064B1A70044ADA
:101C7000FB791370FB8918461037BD4680BD00BF45
:101C80008004002081040020F00300208404002050
:101C900080B485B000AF03460A46FB711346BB71A2
:101CA000394B1B78DBB2FA799A4211D1364B1B784B
:101CB000DAB2364B1A70FA79354913465B00134491
:101CC000DB000B4415331B78DAB22F4B1A703EE061
:101CD000FA792F4913465B001344DB000B4414339D
:101CE0001B78FB73FA792A4913465B001344DB0027
:101CF0000B4415331B78BB73F979FA7B24480B46E8
:101D00005B000B44DB00034415331B78D8B2204939
:101D100013465B001344DB000B44153302461A7074
:101D2000BB7B062B13D0F979BA7B19480B465B00B5
:101D30000B44DB00034414331B78D8B21449134618
:101D40005B001344DB000B44143302461A70FA792B
:101D50000F4913465B001344DB000B440C33012294
:101D60001A70094B1B78DBB2062B07D1BB79002B0D
:101D700004D1084B4FF0FF321A6000BF00BF143788
:101D8000BD465DF8047B704780040020810400207C
:101D9000F00300208404002080B582B000AF1A4B0D
:101DA0001B68B3F1FF3F26D0FFF702FE7860164BA9
:101DB0001B687A689A4205D8134B1A687B68D31A55
:101DC0007B600AE0114B1B881A467B68D31A3B6084
:101DD0000D4B1B683A6813447B600D4B1B781A4609
:101DE0007B6802FB03F37B600A4B1B781A467B6817
:101DF000D3407B6001E000237B607B689BB2184688
:101E00000837BD4680BD00BF840400208C0400203C
:101E10008A0400208904002080B582B000AF034608
:101E2000FB80FB88002B08D1FFF7C2FD0346214A47
:101E30001360032005F051FA39E0FB88012B03D829
:101E40001D4B1B78012B02D0FB88013BFB8000BFA0
:101E50001A4B1B68DB6803F00403002BF8D0174B08
:101E60001B68DB68DAB2154B1B6862F49062DA60BB
:101E7000134B4FF40022DA60032005F03CFA114BBB
:101E80005B691B0C1B04FA880E4913434B61FFF777
:101E90008FFD0346074A1360084B1B689A68074B7F
:101EA0001B6842F480629A60AFF3008000BF08377D
:101EB000BD4680BD8404002089040020D404002095
:101EC000000800580028004080B584B000AF454BA2
:101ED0009B6803F48063B3F5806F07D100BF424B6A
:101EE0001B68DB6803F00403002BF8D13E4B1B6832
:101EF0009A683D4B1B6822F480629A603B4B1B78CA
:101F0000FB73FA7B3A4913465B001344DB000B4436
:101F100008331B68BB60FFF73FFF0346FB80FB886D
:101F2000BA689A4205D20023BB81324B01221A7053
:101F30004DE0FB88304A128892B213441A46BB68BF
:101F4000934206D92C4B1B88BB812A4B00221A7066
:101F50003DE0BB689AB2FB88D31ABB81254B0122B6
:101F60001A7034E0FA7B224913465B001344DB000D
:101F70000B4408331A68FB889A420AD2FA7B1C4940
:101F800013465B001344DB000B44083300221A6045
:101F900013E0FA7B164913465B001344DB000B4445
:101FA00008331968FB88FA7BC91A114813465B008D
:101FB0001344DB00034408331960FA7B0C491346D1
:101FC0005B001344DB000B4415331B78FB73FB7B76
:101FD000062BC7D1BB891846FFF71EFF00BF10377D
:101FE000BD4680BD00280040D404002080040020AD
:101FF000F0030020880400208E04002080B58AB001
:1020000000AFEFF310837B617B697B6272B600BF28
:10201000594B1B68CA225A62574B1B6853225A629B
:10202000554B1B689A68544B1B6822F480629A6077
:10203000524B1B7887F8233097F8232050491346DA
:102040005B001344DB000B440C331B78DBB2022B28
:102050006ED197F823204A4913465B001344DB00F6
:102060000B441B68FB6197F82320454913465B002E
:102070001344DB000B4410331B68BB61414B1B78DE
:10208000DBB2002B4CD097F823203D4913465B0070
:102090001344DB000B440D331B78DBB2012B24D13E
:1020A00097F8233001211846FFF7F2FD7B6A3B6168
:1020B0003B6983F3108800BF97F82320304913460B
:1020C0005B001344DB000B4404331A6897F8233099
:1020D0001146184600F032FA274B1B68CA225A6292
:1020E000254B1B6853225A6212E07B6AFB60FB6837
:1020F00083F3108800BF97F82330184600F09AF950
:102100001D4B1B68CA225A621B4B1B6853225A6222
:1021100097F82330FA691946B86900F095FA22E079
:10212000FFF7D2FE7B6ABB60BB6883F310881AE0BE
:1021300000BF114B1B68DB6803F00403002BF8D0D1
:102140000D4B1B68DB68DAB20B4B1B6862F49062C4
:10215000DA600D4B4FF40022DA607B6A7B607B68AB
:1021600083F3108800BF044B1B68FF225A6200BF34
:102170002837BD4680BD00BFD40400208004002065
:10218000F0030020880400200008005880B588B0C3
:1021900000AF03463960FB715E4B1B68CA225A626E
:1021A0005C4B1B6853225A625B4B9B685A4A43F054
:1021B00020039360584B9B68DBB203F00703DBB24C
:1021C000C3F10403DAB2554B1A70534B1B6903F485
:1021D000FE034FF4FE023A613A6992FAA2F2FA6003
:1021E000FA687A617A69002A01D1202203E07A69CB
:1021F000B2FA82F2D2B2D340DBB20133DAB2484B48
:102200001A70454B1B699BB2C3F30E039BB201339B
:102210009AB2444B1A80434B1B88013B404A1278C8
:1022200002FB03F3A3F5A0733C4A1278D340BB61D1
:10223000BB694FF6FE72934204D93B4B4FF6FF72D7
:102240001A8003E0BB699AB2374B1A804FF4002022
:10225000FFF79CFB4FF40020FFF784FBFB79002B7A
:102260003DD1324B01221A70314B4FF0FF321A60D0
:102270000023FB770CE0FA7F2E4913465B001344E2
:10228000DB000B440C3300221A70FB7F0133FB7719
:10229000FB7F052BEFD9284B06221A701D4B1B68BC
:1022A0009A681C4B1B6822F480629A60194B1B6869
:1022B000DB68DAB2174B1B6862F49062DA601F4B7E
:1022C0004FF40022DA60032005F015F8114B1B686B
:1022D0009A68104B1B6842F480429A6009E00D4BEB
:1022E0001B68DB6803F48063002B02D0032004F03A
:1022F000F4FF084B1B68FF225A62002203210320CF
:1023000004F0A9FF032004F0C0FF00BF2037BD4642
:1023100080BD00BFD40400200028004089040020B4
:102320008A0400208C0400208E04002088040020F1
:1023300084040020F00300208004002000080058DE
:1023400080B48BB000AFF860B9603B601346FB719E
:10235000002387F82630EFF31083FB61FB693B62B3
:1023600072B600BF04E097F82630013387F82630B4
:1023700097F82630052B0CD897F826202C491346C1
:102380005B001344DB000B440C331B78DBB2002BE7
:10239000E9D197F82630062B38D097F82620244923
:1023A00013465B001344DB000B440C3301221A700C
:1023B0003B6ABB61BB6983F3108800BF97F8262096
:1023C0001B4913465B001344DB000B441033FA68CF
:1023D0001A6097F82620164913465B001344DB0069
:1023E0000B440D33FA791A7097F8262010491346DA
:1023F0005B001344DB000B443A681A60BB6897F833
:1024000026201A70002387F8273008E03B6A7B619A
:102410007B6983F3108800BF012387F8273097F882
:10242000273018462C37BD465DF8047B704700BF47
:10243000F003002080B586B000AF0346FB71EFF3D8
:102440001083FB60FB687B6172B600BF032004F061
:102450002AFF344B1B68CA225A62324B1B68532234
:102460005A62FA79304913465B001344DB000B448F
:102470000C331B78DBB2022B42D1FB7900211846CA
:10248000FFF706FC294B1B78FB74FB7C062B2FD136
:10249000274B9B6803F48063B3F5806F07D100BFBF
:1024A000204B1B68DB6803F00403002BF8D11D4BA5
:1024B0001B689A681B4B1B6822F480629A6000BFFD
:1024C000184B1B68DB6803F00403002BF8D0154B96
:1024D0001B68DB68DAB2134B1B6862F49062DA6047
:1024E000144B4FF40022DA60032004F004FF07E0ED
:1024F000114B1B78DBB2FA7C9A4201D0FFF7E4FC67
:10250000084B1B68FF225A62032004F0BEFE7B6961
:10251000BB60BB6883F3108800BF00BF1837BD469F
:1025200080BD00BFD4040020F00300208004002000
:1025300000280040000800588104002080B586B0C3
:1025400000AF03463960FB71FA793B4913465B00E3
:102550001344DB000B440C331B78DBB2022B03D19A
:10256000FB791846FFF766FFEFF31083FB60FB680B
:102570007B6172B600BF032004F095FE2F4B1B68F1
:10258000CA225A622D4B1B6853225A62FA792A4991
:1025900013465B001344DB000B440C3302221A7019
:1025A000FA79254913465B001344DB000B440833DA
:1025B0003A681A60FA79204913465B001344DB003D
:1025C0000B4404333A681A60FB791846FFF7B6FAF1
:1025D00003467B821A4B1B787B741A4B1B78DBB249
:1025E0007A7C9A4202D0FFF76FFC13E0FA79124925
:1025F00013465B001344DB000B44083319687B8AE5
:10260000FA79C91A0C4813465B001344DB000344F3
:1026100008331960094B1B68FF225A62032004F03B
:1026200034FE7B69BB60BB6883F3108800BF00BFCA
:102630001837BD4680BD00BFF0030020D404002041
:10264000800400208104002080B584B000AFF860D1
:102650000B467A60FB727B68984700BF1037BD4617
:1026600080BD000080B584B000AFB9607B600346D8
:10267000FB731346BB81FB7B002B0CD1084A7B68A4
:102680001360084B084A1A60BB891A46B9680548A6
:1026900008F0BEFB00E000BF00BF1037BD4680BDA4
:1026A00090040020F80400200038014080B586B076
:1026B00000AFB9607B600346FB731346BB81002308
:1026C000FB750023BB75FB7B002B0ED1174A7B6883
:1026D0001360174B174A1A60BB891A46B968144829
:1026E00008F0E2FB0346FB7500E000BFFB7D032B17
:1026F00016D801A252F823F0092700080F27000876
:10270000152700081B2700080023BB7509E00123DB
:10271000BB7506E00223BB7503E00323BB7500E035
:1027200000BFBB7D18461837BD4680BD940400200D
:10273000F80400200038014080B582B000AF786016
:102740007B681B681A46094B9A4207D1084B1B68E5
:10275000002B05D0064B1B68984701E000BF00E046
:1027600000BF00BF0837BD4680BD00BF0038014034
:102770009004002080B582B000AF78607B681B6851
:102780001A46094B9A4207D1084B1B68002B05D00B
:10279000064B1B68984701E000BF00E000BF00BF88
:1027A0000837BD4680BD00BF0038014094040020BA
:1027B00080B483B000AF78604FF0B043D3F890306E
:1027C00023F018024FF0B0417B681343C1F89030FA
:1027D00000BF0C37BD465DF8047B704780B485B000
:1027E00000AF78604FF0B0439A6C4FF0B0417B6817
:1027F00013438B644FF0B0439A6C7B681340FB60CB
:10280000FB6800BF1437BD465DF8047B704780B499
:1028100085B000AF78604FF0B043DA6C4FF0B04154
:102820007B681343CB644FF0B043DA6C7B68134092
:10283000FB60FB6800BF1437BD465DF8047B704742
:1028400080B483B000AF78607B68FF225A6200BF1B
:102850000C37BD465DF8047B704780B483B000AF91
:1028600078607B68CA225A627B6853225A6200BF32
:102870000C37BD465DF8047B704780B483B000AF71
:10288000786039607B689B6823F007023B681A43D5
:102890007B689A6000BF0C37BD465DF8047B7047CB
:1028A00080B500AF04F0FEFAFEF724FD00F016F844
:1028B00000F070F800F08EF800F034FB00F03AF908
:1028C00000F026F900F0A2F800F0D4F800F096F835
:1028D000FEF71EFDFEF77BFFFCE7000080B59AB017
:1028E00000AF07F120034822002118460FF0DEF860
:1028F0003B1D00221A605A609A60DA601A615A61C0
:102900009A6105F0B1FB1020FFF752FF204B1B68C6
:1029100023F4C0631E4A43F4007313601C4B1B680E
:1029200003F4C0633B603B6807233B624FF4803392
:102930007B620123BB624FF48073FB6240233B63E5
:102940000023FB6407F12003184605F021FF03462E
:10295000002B01D000F0EDFA6F237B600223BB60F7
:102960000023FB6000233B6100237B610023BB61EC
:102970000023FB613B1D0121184606F07DFA03464A
:10298000002B01D000F0D5FA00BF6837BD4680BDEE
:102990000004005880B594B000AF3B46502200219F
:1029A00018460FF083F84FF440533B604FF48043D8
:1029B0007B640223BB640023FB643B46184606F09D
:1029C00098FE0346002B01D000F0B3FA00BF503749
:1029D000BD4680BD80B500AF064B074A1A6005486A
:1029E00005F0BCFA0346002B01D000F0A2FA00BFAC
:1029F00080BD00BF98040020000C005880B400AFD8
:102A000000BFBD465DF8047B7047000080B500AF95
:102A1000164B174A1A60154B00225A60134B0F22AF
:102A20009A60124B47F6FF72DA60104B00221A616F
:102A30000E4B00229A610D4B0022DA610B4B0022F3
:102A40005A610A4807F0DCF80346002B01D000F079
:102A500070FA0748FFF701FF00210548FFF70DFF57
:102A60000348FFF7EDFE00BF80BD00BFD404002087
:102A70000028004080B500AF234B244A1A60224B47
:102A80004FF4E1325A60204B00229A601E4B002224
:102A9000DA601D4B00221A611B4B0C225A611A4B43
:102AA00000229A61184B4FF40042DA61164B002263
:102AB0001A62154B00225A62134B00229A62124886
:102AC00008F056F90346002B01D000F032FA00213D
:102AD0000D480AF0B6F90346002B01D000F029FAA0
:102AE000002109480AF0EBF90346002B01D000F061
:102AF00020FA05480AF06CF90346002B01D000F0DB
:102B000018FA00BF80BD00BFF80400200038014063
:102B100080B500AF0420FFF761FE0220FFF75EFEE4
:102B200000220F213A2004F096FB3A2004F0ADFB7E
:102B300000BF80BD80B586B000AF3B1D00221A608B
:102B40005A609A60DA601A610120FFF760FE042083
:102B5000FFF75DFE0220FFF75AFE0820FFF757FE41
:102B60001020FFF754FE8020FFF751FE00220321C2
:102B7000BD4805F09FF900224FF44071BB4805F0B5
:102B800099F900224FF48071B94805F093F90022B9
:102B90000421B84805F08EF925237B600323BB6030
:102BA0000023FB603B1D19464FF0904004F034FFBA
:102BB0003A237B600323BB600023FB603B1D194667
:102BC000AA4804F029FF40F604437B600023BB6061
:102BD0000023FB603B1D1946A44804F01DFF4FF481
:102BE00000737B600223BB600023FB6000233B611A
:102BF0000A237B613B1D19469F4804F00DFF01230A
:102C00007B600223BB600023FB6000233B61082341
:102C10007B613B1D1946954804F0FEFE4FF480731E
:102C20007B601223BB600023FB6000233B61042315
:102C30007B613B1D1946904804F0EEFE4FF4815332
:102C40007B600223BB600023FB6000233B61082301
:102C50007B613B1D1946884804F0DEFE4FF40043BB
:102C60007B600223BB600023FB6000233B610123E8
:102C70007B613B1D19464FF0904004F0CDFE4FF4B0
:102C800080637B601223BB600023FB6000233B61F9
:102C900004237B613B1D19464FF0904004F0BCFEBD
:102CA0004FF4C0537B600223BB600023FB60002312
:102CB0003B610A237B613B1D19464FF0904004F0B5
:102CC000ABFE03237B600223BB600023FB60002379
:102CD0003B6105237B613B1D1946654804F09CFE62
:102CE000C0237B600223BB600023FB6000233B61A9
:102CF00009237B613B1D19465C4804F08DFE4FF4AF
:102D000040437B600223BB600023FB6000233B61E8
:102D100005237B613B1D1946574804F07DFE1223B5
:102D20007B600023BB600023FB603B1D19465148BC
:102D300004F072FE4FF480637B600223BB600023CB
:102D4000FB6000233B6101237B613B1D19464A4820
:102D500004F062FE04237B600023BB600023FB6061
:102D60003B1D1946444804F057FE4FF440737B6006
:102D70000223BB600023FB6000233B6103237B61D4
:102D80003B1D19464FF0904004F046FE40237B6007
:102D90000223BB600023FB6000233B6108237B61AF
:102DA0003B1D19464FF0904004F036FE08237B602F
:102DB0000223BB600023FB6000233B610A237B618D
:102DC0003B1D19464FF0904004F026FE03237B6024
:102DD0000123BB600023FB6000233B613B1D1946C0
:102DE000214804F019FE4FF440437B600223BB608E
:102DF0000023FB6000233B6101237B613B1D1946DF
:102E00001B4804F009FE43F210037B600023BB6003
:102E10000023FB603B1D1946154804F0FDFD4FF4EF
:102E200001737B604FF48813BB600023FB603B1D84
:102E300019460F4804F0F0FD4FF440737B60012306
:102E4000BB600023FB6000233B613B1D1946074824
:102E500004F0E2FD68237B600223BB600023FB607B
:102E600000233B610A2309E0001C004800080048D9
:102E7000000C004800100048000400487B613B1D26
:102E80001946264804F0C8FD08237B604FF48813D8
:102E9000BB600023FB603B1D1946214804F0BCFDCC
:102EA0004FF480737B600123BB600023FB60002331
:102EB0003B613B1D1946194804F0AEFD4FF44063D9
:102EC0007B600223BB600023FB6000233B6109237E
:102ED0007B613B1D1946114804F09EFD04237B6075
:102EE0000123BB600023FB6000233B613B1D1946AF
:102EF0000B4804F091FD01237B600223BB6000239B
:102F0000FB6000233B610E237B613B1D1946044897
:102F100004F082FD00BF1837BD4680BD000C00489C
:102F20000010004880B400AF00BFBD465DF8047BD0
:102F3000704780B400AF72B600BF00BFFDE780B439
:102F400083B000AF78604FF0B043D3F8903023F4F3
:102F500040724FF0B0417B681343C1F8903000BF1E
:102F60000C37BD465DF8047B704780B400AF4FF06E
:102F7000B043D3F890304FF0B04243F40043C2F86E
:102F8000903000BFBD465DF8047B704780B485B0CB
:102F900000AF78604FF0B043DA6C4FF0B0417B681F
:102FA0001343CB644FF0B043DA6C7B681340FB6093
:102FB000FB6800BF1437BD465DF8047B704780B4E2
:102FC00085B000AF78604FF0B0431A6D4FF0B0415C
:102FD0007B6813430B654FF0B0431A6D7B68134059
:102FE000FB60FB6800BF1437BD465DF8047B70478B
:102FF00080B485B000AF78604FF0B0439A6D4FF069
:10300000B0417B6813438B654FF0B0439A6D7B688A
:103010001340FB60FB6800BF1437BD465DF8047BBE
:10302000704780B485B000AF78604FF0B0431A6E3F
:103030004FF0B0417B6813430B664FF0B0431A6EFC
:103040007B681340FB60FB6800BF1437BD465DF82A
:10305000047B704780B500AF4FF40020FFF7AFFF4F
:10306000002200212E2004F0F6F82E2004F00DF9A5
:1030700000BF80BD80B582B000AF78607B681B6800
:10308000054A934203D14FF48010FFF798FF00BF29
:103090000837BD4680BD00BF000C005880B596B013
:1030A00000AF786007F108035022002118460EF0A7
:1030B000FDFC7B681B68144A934220D104F0D4FFC6
:1030C00004F0D2FF4FF48070FFF739FF4FF4006334
:1030D000BB604FF48073BB6407F10803184606F029
:1030E00008FB0346002B01D0FFF723FFFFF73DFF4E
:1030F0004FF48060FFF77CFF786806F08DFE00BF1C
:103100005837BD4680BD00BF0028004080B59CB048
:1031100000AF786007F15C0300221A605A609A6081
:10312000DA601A6107F10C035022002118460EF0F4
:10313000BDFC7B681B682E4A934255D10123FB607E
:1031400000237B6207F10C03184606F0D2FA03460F
:10315000002B01D0FFF7EDFE4FF48040FFF761FF39
:103160000220FFF713FFC023FB6502233B66012308
:103170007B660323BB660723FB6607F15C031946E6
:103180001C4804F049FC1C4B1C4A1A601A4B0F22C5
:103190005A60194B10229A60174B0022DA60164BC6
:1031A00080221A61144B00225A61134B00229A614B
:1031B000114B0022DA61104B00221A620E4804F013
:1031C000A9F80346002B01D0FFF7B3FE7B680A4A3B
:1031D000DA67094A7B68936200220021242004F008
:1031E0003AF8242004F051F800BF7037BD4680BD86
:1031F00000380140000400488C05002044040240CF
:1032000080B400AF00BFFDE780B400AF00BFFDE7B2
:1032100080B400AF00BFFDE780B400AF00BFFDE7A2
:1032200080B400AF00BFFDE780B400AF00BFBD4673
:103230005DF8047B704780B400AF00BFBD465DF809
:10324000047B704780B400AF00BFBD465DF8047BCF
:10325000704780B500AF03F07FFE00BF80BD000067
:1032600080B500AF024807F09FFE00BF80BD00BFE1
:10327000F804002080B500AF04F04CFE00BF80BD14
:1032800080B500AF024804F026FA00BF80BD00BF41
:103290008C05002080B500AF01F0C6FB00BF80BDEB
:1032A00080B500AF01F0F6FB00BF80BD80B500AF78
:1032B0004FF4805004F016FE4FF4005004F012FE5C
:1032C00000BF80BD80B500AFFEF798FE00BF80BD97
:1032D00080B500AF02F04CFE00BF80BD80B400AFEF
:1032E00001231846BD465DF8047B704780B582B067
:1032F00000AF786039600EF02BFC034616221A608E
:103300004FF0FF3318460837BD4680BD80B582B008
:1033100000AF78604FF0FF317868FFF7E7FF00BF3C
:10332000FDE780B586B000AFF860B9607A60002331
:103330007B610AE0AFF300800146BB685A1CBA60AB
:10334000CAB21A707B6901337B617A697B689A42E1
:10335000F0DB7B6818461837BD4680BD80B483B06B
:1033600000AF78604FF0FF3318460C37BD465DF86C
:10337000047B704780B483B000AF786039603B68ED
:103380004FF400525A60002318460C37BD465DF8D2
:10339000047B704780B483B000AF78600123184687
:1033A0000C37BD465DF8047B704780B485B000AF34
:1033B000F860B9607A60002318461437BD465DF89E
:1033C000047B704780B586B000AF7860144A154B17
:1033D000D31A7B617B693B61134B1B68002B02D1C5
:1033E000114B124A1A60104B1A687B6813443A69F1
:1033F0009A4207D20EF0ACFB03460C221A604FF043
:10340000FF3309E0084B1B68FB60074B1A687B68B9
:103410001344054A1360FB6818461837BD4680BD43
:103420000000032000100000EC050020881E002092
:1034300080B400AF034B1B681846BD465DF8047BA3
:10344000704700BF8075FF1F80B400AF034B1B683F
:10345000DBB21846BD465DF8047B70478475FF1FDC
:1034600080B400AF034B1B681B0A1846BD465DF8CD
:10347000047B70478475FF1FF0B5B3B004AF92238F
:1034800087F8B33007F19803C7F8AC300023C7F8CA
:10349000B4303B464322002118460EF007FB44237C
:1034A000BB820823FB824FF4A8633B830223BB76D5
:1034B0000123FB7612233B7729237B779C23FB8315
:1034C0004FF4FA733B84022387F823304FF0FF3325
:1034D0007B624FF4A4733B85012387F82A302023B5
:1034E00087F82D30D82387F82E30062387F82F3021
:1034F000032387F8313040F272637B860D2387F80F
:103500003830042387F83A3000F07CFC0121022097
:103510000DF046F9A04A002104200DF0F3FA3B46D5
:1035200018460BF0B9FB034687F8AB3097F8AB3081
:10353000002B08D097F8AB30194698480EF044F9A4
:10354000FFF7F7FC02E096480EF03EF900F070FC41
:103550000CF0FEFA934B002283F87420914B4FF647
:10356000FF729A81904A002101200DF0CBFA8F4A18
:10357000002102200DF0C6FA06200AF0B5FD034630
:1035800087F8B33097F8B330002B06D097F8B330F4
:10359000194687480EF018F902E086480EF014F933
:1035A000854B00221A70854B01221A7001F0B8F881
:1035B000834B002283490020FEF7C2FE824B00228B
:1035C00082490020FEF7BCFE764B0022DA73754B71
:1035D00000229A737E4B80221A807E4BA0221A8092
:1035E000012000F0C7FDD7F8AC000BF099FB0346B3
:1035F000002B40F0928000F069FEC7F8B400D7F8C5
:10360000B43005331B781D46D7F8B43004331B782B
:103610001E46D7F8B43003331B781A46D7F8B430B7
:1036200002331B781946D7F8B43001331B781C4697
:10363000D7F8B4301B7807F184000393029401910A
:10364000009233462A4664490EF036F9D7F8AC307A
:103650001B781A46D7F8AC305B781946D7F8AC30EF
:103660009B7807F16C0000930B465C490EF024F93F
:10367000D7F8AC30DB781A46D7F8AC301B7907F1B5
:10368000580057490EF018F9D7F8AC309B7A1A4613
:10369000D7F8AC30DB7A1946D7F8AC301B7B07F192
:1036A000440000930B464F490EF006F9002100201C
:1036B00003F0C2F9002003F097F807F18402032316
:1036C000002100200CF052FE0CF0EEFD0346DB88DA
:1036D000194607F16C02032300200CF047FE0CF0A2
:1036E000E3FD0346DB885B00194607F1580203231C
:1036F00000200CF03BFE0CF0D7FD0346DB881A4699
:1037000013465B001344194607F1440203230020CB
:103710000CF02CFE002003F067F84FF47A60FEF7FF
:1037200031F8D7F8B43005331B781D46D7F8B430DC
:1037300004331B781E46D7F8B43003331B781A467F
:10374000D7F8B43002331B781946D7F8B4300133B8
:103750001B781C46D7F8B4301B7807F1840003931C
:1037600002940191009233462A461B490EF0A4F8B8
:103770000021002003F060F9002003F035F8012358
:10378000194A002100200CF0F1FD002003F02CF874
:1037900000BFBC37BD46F0BDB1E600085C3F010884
:1037A000943F0108F805002055430008E144000853
:1037B000BC3F01080040010878060020790600207F
:1037C000AD4300086D060020BD4300086E060020D2
:1037D0007006002072060020384001085840010899
:1037E0006C4001088040010890400108F0B599B094
:1037F00004AF7860922387F84F307B680133BB6455
:10380000BB6C1B78FF2B00F0C281FF2B00F3AE8254
:10381000052B02D03E2B67D0A8E2BB6C02337B6243
:103820007B6AB3F801309AB29C4B9B899A4214D1BF
:103830009A4B00229A81994B002283F87420984871
:103840000EF032F87B6AB3F801309BB219467B6AFE
:10385000DB781A4693480DF0B7FF012000F08AFC90
:10386000914B01221A708D4B9A898F4B5A808E484A
:1038700000F042FF00F02AFDB862BB6A05331B78F6
:103880001D46BB6A04331B781E46BB6A03331B7894
:103890001A46BB6A02331B781946BB6A01331B7890
:1038A0001C46BB6A1B7807F10C000393029401913C
:1038B000009233462A467D490DF0FEFF002100208C
:1038C00003F0BAF8002002F08FFF0CF0EDFC034685
:1038D000DB885B0019460123754A00200CF046FD89
:1038E000002002F081FF44E2BB6C0233BB63BB6B80
:1038F0001B780C2B33D00C2B00F34781012B72D09B
:10390000032B40F04281BB6B01333B6369480DF0F0
:10391000CBFF3B6BB3F803309BB21846FCF7EAFDD4
:103920004FF00002644BFCF74FFE02460B46104678
:1039300019463B6BB3F805309BB21C463B6BB3F8A2
:1039400007309BB21A4613469B0013445B00019359
:10395000009402460B4659480DF036FF16E1BB6B4A
:1039600001337B6356480DF02FFF7B6B1B78002BD8
:1039700003D154480DF098FF02E053480DF094FF36
:10398000464B9B8907F1220207F1230118460AF0F2
:1039900023FC034687F84F3097F84F30002B03D0B5
:1039A0004A480DF011FFF1E049480DF07DFF97F80E
:1039B0002330022B0DD197F82230022B09D197F832
:1039C0002330194697F822301A4642480DF0FCFE83
:1039D000DCE097F82330194697F822301A463D4824
:1039E0000DF0F2FED2E0BB6B0133FB622B4B93F880
:1039F00075301846FEF71EFDFB6AB3F801309BB226
:103A0000194635480DF0E0FEFB6A9B7A1846FB6AC2
:103A10005B7A1C46FB6A1B7A1D46FB6ADB791A46F9
:103A2000FB6A9B791946FB6A5B79029301910092CC
:103A30002B462246014629480DF0C6FEFB6AB3F824
:103A40000B309BB21846FCF755FD4FF000021A4BA5
:103A5000FCF7BAFD02460B4610461946FB6AB3F85E
:103A60000D309BB21C46FB6AB3F80F309BB21A466E
:103A700013469B0013445B000193009402460B46DF
:103A80000E480DF0A1FE054B93F87430042B27D19E
:103A9000024B062283F8742026E000BFF8050020C0
:103AA000A4400108D04001087406002038400108F5
:103AB0000C4101081C4101080000F43F504101087D
:103AC000BC410108EC410108F84101080442010829
:103AD000244201084442010868420108B04201083A
:103AE000A64B052283F87420FB6AB3F801309AB222
:103AF000A24B9A81A24B00221A70A04B9A89A04B2C
:103B00005A809F4800F0F8FD00F0E0FBB862BB6A05
:103B100005331B781D46BB6A04331B781E46BB6AFF
:103B200003331B781A46BB6A02331B781946BB6AFB
:103B300001331B781C46BB6A1B7807F10C0003930A
:103B400002940191009233462A468E490DF0B4FE4C
:103B50000CF0AAFB0346DB88194607F10C0203238D
:103B600000200CF003FC0CF09FFB0346DB881A4698
:103B700013465B00134419460323834A00200CF0CC
:103B8000F5FB002002F030FE00E000BFF1E0BB6C6E
:103B900002337B647B6C1B889BB241F60402934228
:103BA00000F0D28041F60402934200F3E18040F637
:103BB0000E42934200F0D08040F60E42934200F352
:103BC000D78040F20A42934222DCB3F5806FC0F204
:103BD000CF80A3F580630A2B00F2CA8001A252F8BD
:103BE00023F000BF1B3C0008033D0008233C0008F5
:103BF000613C0008713D0008693C0008713D000807
:103C0000413D00089D3C0008AD3C0008A53C000873
:103C1000B3F5006F00F09080AAE05C480DF044FE20
:103C2000A3E05B480DF040FE5A4B3B645A4B3B64AB
:103C3000524B9B89396C184609F004FC034687F8FF
:103C40004F3097F84F30002B06D097F84F30194679
:103C500052480DF0B9FD88E051480DF025FE84E092
:103C600050480DF021FE80E04F480DF01DFE434B03
:103C70009B89184609F090FD034687F84F3097F866
:103C80004F30002B06D097F84F30194647480DF0BB
:103C90009BFD6AE046480DF007FE66E045480DF0E2
:103CA00003FE62E044480DF0FFFD5EE043480DF086
:103CB000FBFD7B6C0233D3F80230194640480DF00F
:103CC00083FD7B6C0233D3F8023019463D480DF07A
:103CD0007BFD2A4B9B890121184609F0B1FD034663
:103CE00087F84F3097F84F30002B06D097F84F30B9
:103CF000194635480DF068FD37E034480DF0D4FD25
:103D000033E07B6C0233FB6331480DF0CDFDFB6B80
:103D10009B78002B03D12F480DF0C6FD08E0FB6B0C
:103D20009B781946FB6BDB781A462B480DF04CFD4F
:103D30000A200DF05BFD18E0284B01221A7014E0F8
:103D400027480DF041FD10E00C4B93F876300A2126
:103D50001846FEF7F3FB08E022480DF035FD074B4F
:103D60009B8918460AF07FF800BF01E000BF00E021
:103D700000BF012318465437BD46F0BDF8050020AA
:103D80007406002038400108004301080C43010874
:103D90003C43010807B2010040E20100644301080E
:103DA00098430108C0430108EC430108104401088E
:103DB000404401086844010894440108C4440108CF
:103DC000F8440108144501082C4501087C45010808
:103DD000C4450108F045010808460108790600209D
:103DE000444601086C46010880B500AF00F0BEFCF7
:103DF00000BF80BD80B500AF002102200CF0A4FE02
:103E000000BF80BD80B582B000AF064B3B60064B63
:103E10007B603B46194605480AF02EFC00BF083778
:103E2000BD4680BD28000320894500085145000893
:103E3000B0B58CB006AF00233B809223FB75AF4832
:103E40000DF032FD0AF0A4F90346FB75FB7D002B53
:103E500005D0FB7D1946AA480DF0B6FC02E0A94842
:103E60000DF022FD00F032FA38613A690621002097
:103E70000AF04EF80346FB75FB7D002B05D0FB7D59
:103E80001946A1480DF0A0FC21E0A0480DF00CFD62
:103E90003B6905331B7818463B6904331B781C4685
:103EA0003B6903331B781D463B6902331B781A4676
:103EB0003B6901331B7819463B691B7802930191DA
:103EC00000922B462246014691480DF07DFC3B694D
:103ED00005331A788F4B1A723B6904331A788D4B6D
:103EE0005A723B6903331A788A4B9A723B690233E0
:103EF0001A78884BDA723B6901331A78854B1A734A
:103F00003B691A78834B5A73834A1021182009F0B1
:103F1000FFFF0346FB75FB7D002B05D0FB7D19469B
:103F20007E480DF051FC02E07D480DF0BDFC7D4A5D
:103F30001021082009F0ECFF0346FB75FB7D002BE8
:103F400005D0FB7D194678480DF03EFC02E077482D
:103F50000DF0AAFC182101200AF05FF80346FB755A
:103F6000FB7D002B05D0FB7D194671480DF02CFC24
:103F700002E070480DF098FC09F0C9FC0346FB759F
:103F8000FB7D002B05D0FB7D19466B480DF01CFC1A
:103F900002E06A480DF088FC0023FB73FB7B43F0D2
:103FA0000103FB73FB7B002B2BD0654BBB60BA1D61
:103FB000F87BBB1C01933B1D009313460722002195
:103FC00009F0A7FA0346FB75FB7D002B05D0FB7DAE
:103FD00019465C480DF0F8FB02E05B480DF064FC0C
:103FE000FC88BD88B868FCF72BF90346DAB2BB68D9
:103FF0000093134600222946204609F08BFE034613
:10400000FB75F88879883B4600930223002209F06B
:1040100081FE0346FB750222022100200AF05AF9B4
:104020000346FB75FB7D002B05D0FB7D19464748F9
:104030000DF0CAFB02E046480DF036FC454B01226C
:104040001A70444B1B78184609F0E4F80346FB75D8
:10405000FB7D002B05D0FB7D19463F480DF0B4FBDE
:1040600002E03E480DF020FC3A4B01225A70394BD9
:104070000822DA70374B10221A71364B01229A70DF
:10408000344B9878334B5978324BDB78314A12797C
:1040900000240494002403940124029401920093C8
:1040A0000023012209F00AF90346FB75FB7D002B72
:1040B00005D0FB7D19462A480DF086FB02E0294811
:1040C0000DF0F2FB234B9B78002B0FD009F040FB47
:1040D0000346FB75FB7D002B05D0FB7D194622486E
:1040E0000DF072FB02E021480DF0DEFB20480DF0E0
:1040F0006BFB00BF1837BD46B0BD00BF944601083A
:10410000C0460108F046010810470108744701083D
:10411000C8470108100000203C520108044801086B
:104120005C4801084C520108A4480108FC480108F9
:104130004449010884490108B4490108E8490108D3
:104140000C4A0108244A0108544A0108744A01082B
:10415000B04A0108F8050020DC4A01081C4B0108A0
:104160004C4B0108984B0108D44B0108144C010832
:10417000444C010880B58CB008AF0346FB71922314
:10418000FB72FB79012B06D1414B1B88FB81414B14
:104190001B88BB8105E04FF4C863FB814FF47A6351
:1041A000BB813D4B93F875301846FEF743F9FB7918
:1041B000022B19D1384B93F87430012B04D0364BB5
:1041C00093F87430022B0FD108F006FF0346FB7200
:1041D000FB7A002B05D0FB7A194630480DF0F4FA33
:1041E00002E02F480DF060FB2B4AFB7982F8743017
:1041F000294B9B7BBA89F989002006900020059005
:10420000284804900393284B02930823019300232A
:1042100000930023002008F003FF0346FB72FB7AA3
:10422000002B05D0FB7A194620480DF0CDFA02E0AC
:104230001F480DF039FB1F490E2009F017FA0346FD
:10424000FB72FB7A002B0ED0FB79012B05D1FB7A98
:10425000194619480DF0B8FA17E0FB7A19461748C5
:104260000DF0B2FA11E0FB79012B0AD114480DF0E0
:10427000ABFA094B93F8753012491846FEF75EF910
:1042800003E011480DF0A0FA00BF1037BD4680BD15
:104290007006002072060020F8050020704C01080E
:1042A000BC4C0108070600205C520108044D0108BF
:1042B0003C4D010810000020644D0108984D010894
:1042C000D04D010846E00100F84D010880B586B0E8
:1042D00000AFFFF7ADF838613B69B3F1FF3F23D082
:1042E000FFF7BEF8B860FFF7AFF878603B69DAB265
:1042F000164B1A703B691B0ADAB2144B5A707B6872
:10430000DAB2124B9A70BB68DAB2104BDA70BB6843
:104310001B0ADAB20D4B1A71BB681B0CDAB20B4BDD
:104320005A710A4B7B610BE000200AF061FBF860D8
:10433000FB68002B02D0FB687B6101E0044B7B61D2
:104340007B6918461837BD4680BD00BFF0050020C8
:104350003452010880B582B000AF104B93F874302E
:10436000052B17D09223FB7108F036FE0346FB7134
:104370000A4B002283F87420FB79002B03D00848F5
:104380000DF022FA06E007480DF01EFA06480DF07F
:104390001BFA00BF00BF0837BD4680BDF8050020EE
:1043A000284E01084C4E0108544E010880B500AF5C
:1043B000002101200CF0C8FB00BF80BD80B400AF1D
:1043C00000BFBD465DF8047B7047000090B589B022
:1043D00002AF0346FB803A4B1B78012B48D1384B88
:1043E00000221A70374B1B780133002B03F00103B6
:1043F000B8BF5B42DAB2334B1A70324B1B78324A89
:104400009B00134493ED007AF7EE046AC7EE267A18
:10441000FDEEE77A17EE903AFB822A4B1B782A4A88
:104420009B00134493ED007AF7EE046AC7EE267AF8
:10443000FDEEE77A17EE903ABB8200237B824FF4C1
:10444000FA733B82214B98897C8ABA8AF98A3B8A23
:104450000093234609F0BBFF0346FB73FB7B002B55
:1044600003D01B480DF0B0F902E01A480DF0ACF98A
:10447000144B1B78002B0ED10BF016FF0346DB8884
:104480001A4613465B00134419460323124A0020C0
:104490000BF06CFF0DE00BF007FF0346DB881A46BC
:1044A00013465B001344194603230C4A00200BF00B
:1044B0005DFF002002F098F900BF1C37BD4690BD9B
:1044C000790600207806002008000020F80500206A
:1044D000704E0108984E0108C84E0108DC4E0108D4
:1044E00080B500AF084B93F87430012B0AD0064B0F
:1044F00093F87430002B05D0034B9B891846FFF7C7
:1045000065FF00BF00BF80BDF805002080B582B008
:1045100000AF7860002104200CF016FB00BF0837C4
:10452000BD4680BD80B582B000AF786001200CF040
:1045300077FB00BF0837BD4680BD80B582B000AFB5
:10454000786001200CF08CFB00BF0837BD4680BDB1
:1045500080B584B000AF78607B68FB60FB685B6807
:10456000083318460BF046FB0346FB72FB7A002B20
:1045700003D0FB6801221A7003E0FB6800221A7066
:1045800000BF1037BD4680BD80B584B000AF034684
:10459000FB71FB79002B02D0012B06D00BE00F231F
:1045A000FB60F8680CF0FCFA05E00F23FB60F8688C
:1045B0000CF016FB00BF00BF1037BD4680BD0000E9
:1045C00080B584B000AF78607B681B78032B1AD06D
:1045D000032B79DC002B02D0012B0AD074E03E4B78
:1045E00001221A703D480DF05FF93D480DF0ECF8DE
:1045F0006DE0394B00221A703A480DF055F93848F1
:104600000DF0E2F863E07B685B681B78002B2AD131
:104610007B685B6801331B78012B13D100233B734C
:1046200000237B732223BB7307F10C031846FCF7AE
:10463000EDFE2D480DF038F929480DF0C5F8264B50
:1046400001229A707B685B6801331B78002B0AD1CA
:10465000FCF7EBFE25480DF027F921480DF0B4F8E2
:104660001D4B00229A707B685B681B78012B2DD153
:104670007B685B6801331B78012B13D100233B73EC
:1046800000237B732223BB7307F10C031846FCF74E
:10469000BDFE17480DF008F911480DF095F80E4BC6
:1046A00001229A707B685B6801331B78002B0DD167
:1046B000FCF7BBFE0F480DF0F7F809480DF084F841
:1046C000054B00229A7001E000BF00E000BF00BF70
:1046D0001037BD4680BD00BF7C060020F04E0108AB
:1046E000244F0108284F01085C4F0108844F01083E
:1046F000AC4F0108D44F010880B582B000AF78609C
:104700007B681B78002B05D0012B00D003E000F064
:1047100019F800E000BF00BF0837BD4680BD0000AB
:1047200080B500AF054A002108200CF0EBF9044BDE
:1047300000221A7000F006F800BF80BD7D47000817
:104740007C06002080B500AFFCF76FFE064B01220F
:104750005A70054B00229A70034B0122DA70024B0B
:1047600000221A7100BF80BD7C06002080B500AF1A
:10477000002108200CF0E8F900BF80BD80B500AF33
:104780001D4B1B79002B11D11B4B01221A710BF011
:104790008BFD0346DB885B0019460323174A002084
:1047A0000BF0E4FD002002F01FF810E0124B002295
:1047B0001A710BF079FD0346DB885B001946032371
:1047C0000F4A00200BF0D2FD002002F00DF80A4B3A
:1047D0001B78002B0BD00B480CF0F6FF0A480CF0AE
:1047E000F3FF0A494FF642600AF034FA03E0084842
:1047F0000CF0EAFF00BF80BD7C060020FC4F0108E2
:104800001050010824500108244F01087F060020A1
:104810006450010880B400AF054BDB68044A43F4E0
:104820000043D36000BFBD465DF8047B704700BF06
:104830000004005880B483B000AF7860064BD3F812
:10484000D42005497B681343C1F8D43000BF0C372E
:10485000BD465DF8047B70470008005880B483B003
:1048600000AF7860054B1A6A04497B6813430B62FA
:1048700000BF0C37BD465DF8047B70470008005848
:1048800080B485B000AF78604FF0B0431A6D4FF040
:10489000B0417B6813430B654FF0B0431A6D7B68E2
:1048A0001340FB60FB6800BF1437BD465DF8047B16
:1048B000704780B485B000AF78604FF0B043D3F854
:1048C00050214FF0B0417B681343C1F850314FF095
:1048D000B043D3F850217B681340FB60FB6800BFF6
:1048E0001437BD465DF8047B704780B483B000AFD9
:1048F00078607B681B6843F480327B681A6000BF75
:104900000C37BD465DF8047B704780B483B000AFC0
:1049100078607B681B6843F001027B681A6000BF07
:104920000C37BD465DF8047B704780B483B000AFA0
:10493000786039607B685A683B681B04DB431A4027
:104940007B685A6000BF0C37BD465DF8047B70473A
:1049500080B483B000AF786039607B685A683B6888
:104960001B041A437B685A6000BF0C37BD465DF8D4
:10497000047B704780B483B000AF786039607B6897
:104980005A683B68DB431A407B685A6000BF0C37AB
:10499000BD465DF8047B704780B483B000AF78609B
:1049A00039607B683A689A6000BF0C37BD465DF895
:1049B000047B704780B483B000AF786039603B6897
:1049C0001A047B689A6000BF0C37BD465DF8047B13
:1049D000704780B483B000AF786039607B68DA6874
:1049E0003B6813403A689A4201D1012300E000235A
:1049F00018460C37BD465DF8047B704780B483B021
:104A000000AF786039607B68DA693B6813403A68C8
:104A10009A4201D1012300E0002318460C37BD461D
:104A20005DF8047B7047000080B500AF0221184894
:104A3000FFF7E4FF0346002B08D0154B5B6803F03B
:104A40000203002B02D100F025F91EE001211048DD
:104A5000FFF7D4FF0346002B08D00D4B5B6803F033
:104A60000103002B02D100F099F80EE0082108485C
:104A7000FFF7C4FF0346002B08D0054B5B6803F02B
:104A80000803002B02D100F07DF900BF00BF80BDFC
:104A9000000C005880B500AF02211848FFF799FFBD
:104AA0000346002B08D1154B5B6803F40033002B41
:104AB00002D100F0D3F81EE008211048FFF789FF6B
:104AC0000346002B08D10D4B5B6803F40023002B39
:104AD00002D100F019F90EE020210848FFF779FF14
:104AE0000346002B08D1054B5B6803F40013002B31
:104AF00002D100F05FF800BF00BF80BD000C00587D
:104B000080B500AF4FF48010FFF7D3FE4FF4007074
:104B1000FFF7A4FE4FF40070FFF78CFE40BF20BFEC
:104B2000FFF778FE00BF80BD80B500AF4FF4801066
:104B3000FFF7A6FE0648FFF7E8FE0548FFF7D5FE9B
:104B40002C2002F0A2FB2D2002F09FFB00BF80BDB5
:104B5000000C005880B584B000AFEFF310837B6089
:104B60007B68FB6072B600BF01210648FFF702FFB9
:104B7000FB68BB60BB6883F3108800BF00BF1037C1
:104B8000BD4680BD000C005880B500AF0121024831
:104B9000FFF710FF00BF80BD000C005880B500AFCC
:104BA0000BF00CF901210248FFF7F6FE00BF80BDB3
:104BB000000C005880B584B000AFEFF310837B6029
:104BC0007B68FB6072B600BF20210748FFF7C0FE7C
:104BD000FB68BB60BB6883F3108800BF0BF01EF955
:104BE00000BF1037BD4680BD000C005880B584B0B2
:104BF00000AFEFF310837B607B68FB6072B600BF91
:104C000002210648FFF7B6FEFB68BB60BB6883F372
:104C1000108800BF00BF1037BD4680BD000C005893
:104C200080B584B000AF02210B48FFF7C3FEEFF35D
:104C300010837B607B68FB6072B600BF0221064870
:104C4000FFF773FEFB68BB60BB6883F3108800BF8F
:104C500000BF1037BD4680BD000C005880B584B041
:104C600000AFEFF310837B607B68FB6072B600BF20
:104C700002210748FFF76CFEFB68BB60BB6883F34B
:104C8000108800BF0BF01EF900BF1037BD4680BD75
:104C9000000C005880B500AF0BF02AF90221024841
:104CA000FFF77AFE00BF80BD000C005880B586B0CB
:104CB00000AF786008211248FFF78BFE0346002BF7
:104CC00013D0104A7B681360EFF31083FB60FB681E
:104CD0007B6172B600BF08210948FFF726FE7B6999
:104CE0003B613B6983F3108805E07B6898470821A6
:104CF0000348FFF75FFE00BF1837BD4680BD00BF09
:104D0000000C00588406002080B584B000AFEFF39B
:104D100010837B607B68FB6072B600BF08210A4885
:104D2000FFF716FEFB68BB60BB6883F3108800BF0B
:104D3000064B1B68984708210348FFF73BFE00BF5E
:104D40001037BD4680BD00BF000C0058840600200F
:104D500080B584B000AFEFF310837B607B68FB60AD
:104D600072B600BF08210648FFF704FEFB68BB606F
:104D7000BB6883F3108800BF00BF1037BD4680BDFD
:104D8000000C005880B500AF0BF05AF9082102481A
:104D9000FFF702FE00BF80BD000C005880B584B054
:104DA00000AF786039607B68002B03D14FF0FF3390
:104DB000FB601CE03B681A687B681A603B685A68B5
:104DC0007B685A603B689A687B689A603B68DA68DF
:104DD0007B68DA603B681A697B681A617B680C4AF9
:104DE0009A617B680B4A5A617B687A68DA617B68F2
:104DF0001B68002B04D07B681B689847F86002E0B2
:104E00004FF0FF33FB60FB6818461037BD4680BD8E
:104E1000A15C0008CF5C000880B586B000AFF860E8
:104E2000B9607A6000237B61FB68002B02D07B684D
:104E3000002B03D04FF0FF337B61ABE0FB6893F8AE
:104E40002030002B40F0A380FB68012283F8202053
:104E5000FB687A685A626421F86800F06BFF80236F
:104E6000FB74FB6803F1140007F113020123012115
:104E700000F07AFF02467B6913447B618D23FB744B
:104E8000FB6803F1140007F113020123012100F074
:104E90006BFF02467B6913447B611423FB74FB6840
:104EA00003F1140007F113020123012100F05CFF5C
:104EB00002467B6913447B612023FB74FB6803F18A
:104EC000140007F113020123012100F04DFF0246F7
:104ED0007B6913447B610023FB74FB6803F11400BE
:104EE00007F113020123012100F03EFF02467B6916
:104EF00013447B614023FB74FB6803F1140007F14A
:104F000013020123012100F02FFF02467B691344A5
:104F10007B61C823FB74FB6803F1140007F11302E3
:104F20000123012100F020FF02467B6913447B61CD
:104F3000A123FB74FB6803F1140007F113020123A2
:104F4000012100F011FF02467B6913447B61AF230E
:104F5000FB74FB6803F1140007F113020123012124
:104F600000F002FF02467B6913447B61002000F0E1
:104F7000C5FEFB6803F114004FF480630B4A012166
:104F800000F0F2FE02467B6913447B6102E04FF0C1
:104F9000FF337B617B69002B02D04FF0FF337B61D5
:104FA0007B6918461837BD4680BD00BF90060020BB
:104FB00080B584B000AF78600023FB607B6893F815
:104FC0002030002B0AD0786800F05EF80246FB68BB
:104FD0001344FB607B68002283F82020FB68002BD1
:104FE00002D04FF0FF33FB60FB6818461037BD4618
:104FF00080BD80B483B000AF786039604FF0FF337C
:1050000018460C37BD465DF8047B704780B584B008
:1050100000AF78600023FB608D23FB727B6803F197
:10502000140007F10B020123012100F09DFE02464E
:10503000FB681344FB601423FB727B6803F11400CC
:1050400007F10B020123012100F08EFE0246FB68EE
:105050001344FB60AF23FB727B6803F1140007F17C
:105060000B020123012100F07FFE0246FB6813447E
:10507000FB60FB68002B02D04FF0FF33FB60FB6846
:1050800018461037BD4680BD80B584B000AF78604B
:105090000023FB608D23FB727B6803F1140007F192
:1050A0000B020123012100F05FFE0246FB6813445E
:1050B000FB601023FB727B6803F1140007F10B0205
:1050C0000123012100F050FE0246FB681344FB60FF
:1050D000AE23FB727B6803F1140007F10B0201237E
:1050E000012100F041FE0246FB681344FB60FB68AF
:1050F000002B02D04FF0FF33FB60FB6818461037DF
:10510000BD4680BD80B483B000AF786039604FF099
:10511000FF3318460C37BD465DF8047B704780B4FA
:1051200083B000AF786039604FF0FF3318460C371A
:10513000BD465DF8047B704780B483B000AF7860F3
:1051400039604FF0FF3318460C37BD465DF8047BDD
:10515000704780B483B000AF786039604FF0FF33A0
:1051600018460C37BD465DF8047B704780B485B0A7
:1051700000AFF860B9607A604FF0FF33184614371B
:10518000BD465DF8047B704780B584B000AF7860A1
:105190000023FB604023FB727B6803F1140007F1DE
:1051A0000B020123012100F0DFFD0246FB681344DE
:1051B000FB602123FB727B6803F1140007F10B02F3
:1051C0000123012100F0D0FD0246FB681344FB607F
:1051D0000023FB727B6803F1140007F10B0201232B
:1051E000012100F0C1FD0246FB681344FB607F23F0
:1051F000FB727B6803F1140007F10B02012301210C
:1052000000F0B2FD0246FB681344FB602223FB72F0
:105210007B6803F1140007F10B020123012100F068
:10522000A3FD0246FB681344FB600023FB727B680E
:1052300003F1140007F10B020123012100F094FD9A
:105240000246FB681344FB600F23FB727B6803F18B
:10525000140007F10B020123012100F085FD024635
:10526000FB681344FB607B6803F114004FF4806318
:10527000094A012100F078FD0246FB681344FB60F7
:10528000FB68002B02D04FF0FF33FB60FB68184631
:105290001037BD4680BD00BF9006002080B58EB09F
:1052A00000AFF860B9607A603B6000237B63002345
:1052B000BB6200237B6200233B620023FB6100236F
:1052C000BB6100237B6100233B6100233B63002320
:1052D000FB623B6802331B781A463B6803331B783A
:1052E0001B021A443B6804331B781B041A443B68B6
:1052F00005331B781B0613447B623B680A331B781B
:105300001A463B680B331B781B021A443B680C336C
:105310001B781B041A443B680D331B781B0613448F
:10532000BB623B6812331B781A463B6813331B7809
:105330001B021A443B6814331B781B041A443B6855
:1053400015331B781B061344FB613B6816331B782F
:105350001A463B6817331B781B021A443B68183304
:105360001B781B041A443B6819331B781B06134433
:105370003B627A6ABB6AD31A5B087B623A68BB6A93
:1053800013443B60BB68002B16D1BB68002B0CBFDD
:1053900001230023DAB27B6AB3F5806F0CBF0123CF
:1053A0000023DBB21340DBB2002B05D07A6A3968E8
:1053B00043480CF0FAFB78E0BA68FB691344BB6120
:1053C0007A683B6A13447B617B683B6169E03B69B7
:1053D0007B600023FB625AE07B6803F00703002B2D
:1053E00021D17A697B68D31A072B1CD9FB6A03F099
:1053F0000703002B17D1FB6ADB08FA6903FB02F2F3
:105400003B6B13443A681A447B68DB08D901BB68DC
:105410000B4411782A4AD1547B6807337B60FB6ABE
:105420000733FB622DE0FB6ADB08FA6903FB02F23B
:105430003B6B13443A6813441B781A46FB6A03F02B
:10544000070342FA03F303F00103002B0CD0FF2300
:105450007A68B968F86800F03DFA0346002B10D06E
:105460004FF0FF337B6316E000237A68B968F86871
:1054700000F030FA0346002B03D04FF0FF337B637C
:1054800009E07B6801337B60FB6A0133FB627A6869
:105490007B699A42A0D3BB680133BB603B6B01338D
:1054A0003B63BA68BB699A4291D37B6B002B02D0F5
:1054B0004FF0FF337B637B6B18463837BD4680BDAA
:1054C0009006002080B590B000AFF8600846114605
:1054D0001A4603467B810B463B811346FB80002323
:1054E000FB630023BB6200237B620023BB630023BA
:1054F0007B6300233B620023FB610023BB6100232D
:105500007B6100233B630023FB6200233B61FB6C58
:1055100002331B889BB27B62FB6C04331B889BB2FB
:105520001B041A467B6A13437B62FB6C0A331B889D
:105530009BB2BB62FB6C0C331B889BB21B041A46EC
:10554000BB6A1343BB62FB6C12331B887B63FB6C2F
:1055500014331B881B047A6B13437B637B6B3B62A6
:10556000B7F90630002B09DBFA887B8913447B816D
:10557000B7F906307A6BD31A7B6308E0B7F90630C7
:105580007A6B13447B63B7F906305B423B63FB6C79
:1055900016331B88BB63FB6C18331B881B04BA6B68
:1055A0001343BB63B7F94830002B0ADBB7F9483027
:1055B000BA6BD31ABB63B7F848203B8913443B81CD
:1055C00008E0B7F94830BA6B1344BB63B7F9483009
:1055D0005B42FB62FB6A3B617A6ABB6AD31A5B0877
:1055E0007B62B7F90630BA6B02FB03F3DA08B7F94E
:1055F0004830796B01FB03F3DB0813447A6AD31A52
:105600007B62FA6CBB6A1344FB647B89002B16D166
:105610007B89002B0CBF01230023DAB27B6AB3F530
:10562000806F0CBF01230023DBB21340DBB2002BE1
:1056300005D07A6AF96C45480CF0B7FA7AE07B89B4
:105640007A6B1344FB613B89BA6B1344BB613B89A2
:105650007B616BE07B693B813B69FB625CE03B8982
:1056600003F007039BB2002B22D13B89BA69D31AFE
:10567000072B1DD9FB6A03F00703002B18D1FB6A27
:10568000DB083A6A03FB02F23B6B1344FA6C1A44E0
:1056900079893B89DB089BB2DB010B4411782B4AEB
:1056A000D1543B8907333B81FB6A0733FB622DE012
:1056B000FB6ADB083A6A03FB02F23B6B1344FA6CA9
:1056C00013441B781A46FB6A03F0070342FA03F3FC
:1056D00003F00103002B0CD079893A89FF23F86885
:1056E00000F0F8F80346002B10D04FF0FF33FB63B7
:1056F00016E079893A890023F86800F0EBF8034650
:10570000002B03D04FF0FF33FB6309E03B890133EB
:105710003B81FB6A0133FB623B89BA699A429ED89E
:105720007B8901337B813B6B01333B637B89FA6966
:105730009A428FD8FB6B002B02D04FF0FF33FB63F4
:10574000FB6B18464037BD4680BD00BF9006002069
:1057500080B588B000AFF860B9607A603B60002324
:10576000FB610023BB6132E000237B6128E03B68E2
:105770001B781A463B6801331B781B021A433B68AF
:1057800002331B781B041A433B6803331B781B0648
:1057900013433B61BA687B69D1187A68BB691A44C4
:1057A0003B69F86800F096F80346002B02D04FF0F2
:1057B000FF33FB613B6804333B607B6901337B61F2
:1057C0007A69BB6A9A42D2D3BB690133BB61BA69B9
:1057D000FB6A9A42C8D3FB6918462037BD4680BD94
:1057E00080B586B000AFF860B9607A603B60002396
:1057F0007B6100233B61BB683B6108E03B6A7A68E0
:105800003969F86800F066F83B6901333B61BA68B2
:105810003B6813443A699A42F0D37B69002B02D06B
:105820004FF0FF337B617B6918461837BD4680BD5A
:1058300080B586B000AFF860B9607A603B60002345
:105840007B6100233B617B683B6108E03B6A3A690E
:10585000B968F86800F03EF83B6901333B617A684B
:105860003B6813443A699A42F0D37B69002B02D01B
:105870004FF0FF337B617B6918461837BD4680BD0A
:1058800080B588B002AFF860B9607A603B600023F1
:105890007B6100233B6113E03A697B681A447B6AB1
:1058A00000933B68B968F868FFF79AFF0346002B3E
:1058B00003D04FF0FF337B6106E03B6901333B616E
:1058C0003A693B6A9A42E7D37B6918461837BD4666
:1058D00080BD000080B487B000AFF860B9607A6026
:1058E0003B6000237B613B68FF2B17D17B68DB08A3
:1058F000D901BA680A441C498A5C51B27A6802F03C
:105900000702012000FA02F252B20A4351B2DA0150
:10591000BB681344C9B2144AD15418E07B68DB0851
:10592000D901BA680A4410498A5C51B27A6802F017
:105930000702012000FA02F252B2D24352B20A40E8
:1059400051B2DA01BB681344C9B2074AD1547B692A
:10595000002B02D04FF0FF337B617B6918461C3768
:10596000BD465DF8047B70479006002080B487B088
:1059700000AFF860B9607A603B6000237B61BB6870
:105980007F2B02D87B683F2B03D93B6800221A602B
:105990001CE07B68DB08DA01BB6813440F4AD35C68
:1059A00019467B6803F00703012202FA03F30B4058
:1059B0001A463B681A603B681B68002B03D03B68A3
:1059C00001221A6002E03B6800221A607B691846D7
:1059D0001C37BD465DF8047B704700BF9006002071
:1059E00080B485B000AF786039600023FB607B68CD
:1059F0005B6A002B03D13B6880221A6002E04FF003
:105A0000FF33FB60FB6818461437BD465DF8047B26
:105A1000704780B485B000AF786039600023FB60C8
:105A20007B685B6A002B03D13B6840221A6002E06E
:105A30004FF0FF33FB60FB6818461437BD465DF836
:105A4000047B704780B584B000AF78600B467B80E4
:105A50000023FB607B88DBB263F04F03DBB2FB7299
:105A60007B6803F1140007F10B020123012100F010
:105A70007BF90246FB681344FB60FB68002B02D0F5
:105A80004FF0FF33FB60FB6818461037BD4680BD02
:105A900080B584B000AF78600B467B800023FB604C
:105AA0000023FB727B6803F1140007F10B02012352
:105AB000012100F059F90246FB681344FB607B8822
:105AC000DBB2FB727B6803F1140007F10B020123C8
:105AD000012100F049F90246FB681344FB601F23D3
